:100000000C9434000C943E000C943E000C943E0082
:100010000C943E000C943E000C943E000C943E0068
:100020000C943E000C943E000C943E000C943E0058
:100030000C943E000C943E000C943E000C943E0048
:100040000C943E000C943E000C943E000C943E0038
:100050000C943E000C943E000C943E000C943E0028
:100060000C943E000C943E0011241FBECFEFD8E04C
:10007000DEBFCDBF0E9449000C9485000C940000A7
:1000800080E090E00000019623E08A319207D1F7EA
:1000900008958AB18C6F8AB984B18FEF84B929B180
:1000A00081E085B940E061E050E839B130FD09C038
:1000B00020FD07C04A3F21F430E021E040E001C0CC
:1000C0004F5F30FD18C020FF16C049990AC085B1A6
:1000D000813021F485B985B955B90DC085B18695B2
:1000E00009C085B1803821F485B985B965B903C0E7
:1000F00085B1880F85B980E090E000000196232F3C
:0E01000073E08A31970789F2F8CFF894FFCFA9
:00000001FF
