:100000000C9434000C943E000C943E000C943E0082
:100010000C943E000C943E000C943E000C943E0068
:100020000C943E000C943E000C943E000C943E0058
:100030000C943E000C943E000C943E000C943E0048
:100040000C943E000C943E000C943E000C943E0038
:100050000C943E000C943E000C943E000C943E0028
:100060000C943E000C943E0011241FBECFEFD8E04C
:10007000DEBFCDBF0E9440000C9461000C940000D4
:1000800084B18FEF84B98AB18C6F8AB981E085B968
:1000900021E090E8489912C0499908C085B18130A3
:1000A00011F495B9F7CF85B1869509C085B180382F
:1000B00011F425B9EFCF85B1880F01C085B185B99D
:0600C000E9CFF894FFCF28
:00000001FF
