:100000000C9434000C9451000C9451000C94510049
:100010000C9451000C9451000C9451000C9451001C
:100020000C9451000C9451000C9451000C9421013B
:100030000C9451000C9451000C9451000C945100FC
:100040000C9451000C9451000C9451000C945100EC
:100050000C9451000C9451000C9451000C945100DC
:100060000C9451000C94510011241FBECFEFD8E026
:10007000DEBFCDBF11E0A0E0B1E0E8EDF3E002C0EB
:1000800005900D92A230B107D9F711E0A2E0B1E0DE
:1000900001C01D92A730B107E1F70E94E8000C945F
:1000A000EA010C940000882321F080E8809302018B
:1000B0000895109202010895982F92959F70282F0D
:1000C0002F7080910201882311F09068206895B903
:1000D00095B9892F806485B985B995B995B925B940
:1000E00025B9822F806485B985B925B925B915B898
:1000F0008AE68A95F1F70895482F42954F70942F1C
:100100009061382F3F70232F206180910201882356
:1001100021F0942F9069232F206995B995B9892FE3
:10012000806485B985B995B995B925B925B9822F66
:10013000806485B985B925B925B915B885E88A954A
:10014000F1F708950F931F9381E00E945C0000EA8D
:100150001FE0C8010197F1F782E00E945C00C8012E
:100160000197F1F71F910F91089580910201982F47
:10017000926095B995B9826485B985B995B995B9F3
:1001800015B885E88A95F1F788E20E945C0086E060
:100190000E945C008CE00E945C000E94A200089516
:1001A000813011F080EC01C080E861506F70862BC7
:1001B0000E945C000895CF93DF93EC0103C00E947E
:1001C0007C00219688818823D1F7DF91CF91089513
:1001D0008AB1806F8AB984B18FEF84B987B1806F9B
:1001E00087B980917C00806680937C0080917C0040
:1001F000816080937C0080917A00806880937A008F
:1002000080917A00866080937A0084B5836884BD8B
:1002100085B5816085BD809181008A608093810071
:1002200080916F00826080936F0088EE93E09093DE
:100230008900809388000E94B5000E94A2007894F3
:10024000FFCF1F920F920FB60F9211240F931F939F
:100250002F933F934F935F936F937F938F939F93CE
:10026000AF93BF93EF93FF93DF93CF93CDB7DEB7F9
:100270006097DEBFCDBF5C9A99B1909304015D9AFF
:1002800080917A00806480937A0080917A0086FD64
:10029000FCCF5D982091790090FD0BC08091030107
:1002A00080FF07C080910501823018F08150809353
:1002B000050191FD0BC08091030181FF07C0809172
:1002C0000501863018F48F5F809305018091050148
:1002D000882341F030E090E0019702C035952795E2
:1002E0008A95E2F7209306018E010F5F1F4FC80128
:1002F00060E071E0409106010E94A50181E061E0AB
:100300000E94D000C8010E94DB008091040180930C
:1003100003018091060187BD5C986096DEBFCDBF6A
:10032000CF91DF91FF91EF91BF91AF919F918F910D
:100330007F916F915F914F913F912F911F910F91FD
:100340000F900FBE0F901F901895DC01FB0102C0AB
:100350008D93319680818823D9F7443620F480E24A
:100360008C9320E00EC0842F64E60E94DE01282FCB
:10037000205D2C9320538CE99FEF289F802D112422
:10038000480FFD0131964A3038F4222311F480E2FF
:1003900001C080E380830EC0842F6AE00E94DE01EA
:1003A000805D11968C93805326EF3FEF829F802DC6
:1003B0001124480F405D418312820895991B79E012
:1003C00004C0991F961708F0961B881F7A95C9F7E5
:0803D00080950895F894FFCF19
:0203D800000023
:00000001FF
