:100000000C9434000C9451000C9451000C94510049
:100010000C9451000C9451000C9451000C9451001C
:100020000C9451000C9451000C9451000C9451000C
:100030000C9451000C9451000C9451000C945100FC
:100040000C9451000C9451000C9451000C945100EC
:100050000C9451000C9451000C9451000C945100DC
:100060000C9451000C94510011241FBECFEFD8E026
:10007000DEBFCDBF11E0A0E0B1E0E0E1F3E002C0FF
:1000800005900D92AA30B107D9F711E0AAE0B1E0CE
:1000900001C01D92AB30B107E1F70E94E8000C945B
:1000A00086010C940000882321F080E880930A01E7
:1000B000089510920A010895982F92959F70282F05
:1000C0002F7080910A01882311F09068206895B9FB
:1000D00095B9892F806485B985B995B995B925B940
:1000E00025B9822F806485B985B925B925B915B898
:1000F0008AE68A95F1F70895482F42954F70942F1C
:100100009061382F3F70232F206180910A0188234E
:1001100021F0942F9069232F206995B995B9892FE3
:10012000806485B985B995B995B925B925B9822F66
:10013000806485B985B925B925B915B885E88A954A
:10014000F1F708950F931F9381E00E945C0000EA8D
:100150001FE0C8010197F1F782E00E945C00C8012E
:100160000197F1F71F910F91089580910A01982F3F
:10017000926095B995B9826485B985B995B995B9F3
:1001800015B885E88A95F1F788E20E945C0086E060
:100190000E945C008CE00E945C000E94A200089516
:1001A000813011F080EC01C080E861506F70862BC7
:1001B0000E945C000895CF93DF93EC0103C00E947E
:1001C0007C00219688818823D1F7DF91CF91089513
:1001D000AF92BF92CF92DF92FF920F931F93DF9364
:1001E000CF93CDB7DEB760970FB6F894DEBF0FBEE2
:1001F000CDBF8AB1806F8AB984B18FEF84B90E9474
:10020000B5000E94A20009B181E061E00E94D00027
:1002100080E091E00E94DB0010E06E010894C11CB8
:10022000D11C88EEA82E83E0B82EF9B09F2DF0FCEB
:1002300007C000FF05C0123018F0115081E001C066
:1002400080E091FD06C001FF04C01B3010F41F5F69
:1002500002C0813089F45C9AC60169E071E0412FE7
:100260000E9441015C985D9A81E067E00E94D000A5
:10027000C6010E94DB005D98C5010197F1F70F2DC3
:10028000D4CFDC01FB0102C08D933196808188239D
:10029000D9F7443620F480E28C9320E00EC0842FFE
:1002A00064E60E947A01282F205D2C9320538CE96C
:1002B0009FEF289F802D1124480FFD0131964A3071
:1002C00038F4222311F480E201C080E380830EC061
:1002D000842F6AE00E947A01805D11968C9380538E
:1002E00026EF3FEF829F802D1124480F405D418310
:1002F00012820895991B79E004C0991F961708F09F
:10030000961B881F7A95C9F780950895F894FFCFBA
:0A031000417474656E3D203000005A
:00000001FF
