:100000000C9434000C9451000C9451000C94510049
:100010000C9451000C9451000C9451000C942E033C
:100020000C9451000C9451000C9451000C949102CA
:100030000C9451000C9451000C9451000C945100FC
:100040000C9451000C9451000C9423020C949D01CB
:100050000C9451000C9451000C9451000C945100DC
:100060000C9451000C94510011241FBECFEFD8E026
:10007000DEBFCDBF11E0A0E0B1E0E6E3F7E002C0F3
:1000800005900D92AA31B107D9F711E0AAE1B1E0CC
:1000900001C01D92A238B107E1F70E94C3010C9480
:1000A00099030C94000030911A01332391F1E091EF
:1000B0000101F09102012081922F92959F7027FFFC
:1000C000906195B9892F806485B995B9892F807F12
:1000D0002F70822B85B9982F906495B985B915B882
:1000E00080910001815080930001882351F482E2C5
:1000F00091E0909302018093010180E280930001DE
:1001000005C03196F0930201E09301013150309324
:100110001A0180911A01882329F4809170008D7F43
:10012000809370000895882321F080E880931B015C
:10013000089510921B010895982F92959F70282F73
:100140002F7080911B01882311F09068206895B969
:1001500095B9892F806485B985B995B995B925B9BF
:1001600025B9822F806485B985B925B925B915B817
:100170008AE68A95F1F70895482F42954F70942F9B
:100180009061382F3F70232F206180911B018823BD
:1001900021F0942F9069232F206995B995B9892F63
:1001A000806485B985B995B995B925B925B9822FE6
:1001B000806485B985B925B925B915B885E88A95CA
:1001C000F1F708950F931F9381E00E949C0000EACD
:1001D0001FE0C8010197F1F782E00E949C00C8016E
:1001E0000197F1F71F910F91089580911B01982FAE
:1001F000926095B995B9826485B985B995B995B973
:1002000015B885E88A95F1F788E20E949C0086E09F
:100210000E949C008CE00E949C000E94E2000895D5
:10022000813011F080EC01C080E861506F70862B46
:100230000E949C000895CF93DF93EC0103C00E94BD
:10024000BC00219688818823D1F7DF91CF91089552
:10025000982F80911A018032D9F0E0911701F09126
:1002600018019193F0931801E093170180911A01FE
:100270008F5F80931A018091150190911601E81704
:10028000F90731F482E291E090931801809317010D
:10029000809170008260809370000895982F809103
:1002A0001D018034D9F0E0911301F0911401919374
:1002B000F0931401E093130180911D018F5F8093EF
:1002C0001D018091110190911201E817F90731F495
:1002D00082E491E090931401809313018091C10016
:1002E00080628093C100089590911D019923D9F0F7
:1002F000E0910F01F091100181918093C600F0937D
:100300001001E0930F01915090931D0180910D0118
:1003100090910E01E817F90731F482E491E090938F
:10032000100180930F0180911D01882329F4809191
:10033000C1008F7D8093C10008951F920F920FB668
:100340000F9211242F933F934F935F936F937F935B
:100350008F939F93AF93BF93EF93FF935D9A0E9408
:1003600074015D98FF91EF91BF91AF919F918F9133
:100370007F916F915F914F913F912F910F900FBEA1
:100380000F901F9018958AB1806F8AB984B18FEF52
:1003900084B987B1806F87B980917C008066809333
:1003A0007C0080917C00816080937C0080917A0049
:1003B000806880937A0080917A00866080937A00CA
:1003C00084B5836884BD85B5816085BD80918100D9
:1003D0008A608093810080916F00826080936F00BB
:1003E00088EE93E090938900809388008091B0001C
:1003F00082608093B0008091B10082608093B100F0
:100400008091700082608093700082E38093B300DB
:1004100083E390E09093C5008093C4008091C10075
:1004200088618093C1008091C100806A8093C1007F
:100430008091C20086608093C2000E94F5000E94F5
:10044000E2007894FFCF1F920F920FB60F92112403
:100450000F931F932F933F934F935F936F937F93CC
:100460008F939F93AF93BF93EF93FF93DF93CF93BC
:10047000CDB7DEB76097DEBFCDBF8091C600809359
:100480001E0190E08F7D90708535910531F480914B
:100490000C01823050F0815008C08434910539F449
:1004A00080910C018B3008F48F5F80930C01409198
:1004B0000C0180911F018417C1F08E010F5F1F4F47
:1004C000C80163E071E00E94540380EC0E9428019F
:1004D0008DE005C00E942801F80181918F010E94E2
:1004E0004E01F80180818823A9F780910C01809347
:1004F0001F016096DEBFCDBFCF91DF91FF91EF91DD
:10050000BF91AF919F918F917F916F915F914F912B
:100510003F912F911F910F910F900FBE0F901F9041
:1005200018951F920F920FB60F921124EF92FF921F
:100530000F931F932F933F934F935F936F937F93EB
:100540008F939F93AF93BF93EF93FF93DF93CF93DB
:10055000CDB7DEB76097DEBFCDBF80917A008064F3
:1005600080937A0080917A0086FDFCCF809179009B
:1005700090910C01492F50E0682F70E090FF0CC063
:10058000415050405595479502C0759567954A95DD
:10059000E2F76093210114C09695892F90E00196AF
:1005A0009B01082E02C0359527950A94E2F7019722
:1005B00002C0759567958A95E2F7260F2093210171
:1005C0008E010F5F1F4FC8016BE071E04091210168
:1005D0000E94540380E80E942801780104C00E9410
:1005E00028010F5F1F4FF80180818823C1F7809198
:1005F00020018A3089F45C9A80E20E944E0105C095
:100600000E944E010894E11CF11CF70180818823AF
:10061000B9F7109220015C98809120018F5F809340
:1006200020018091210187BD6096DEBFCDBFCF91B3
:10063000DF91FF91EF91BF91AF919F918F917F914A
:100640006F915F914F913F912F911F910F91FF906B
:10065000EF900F900FBE0F901F9018951F920F9262
:100660000FB60F9211242F933F934F935F936F9385
:100670007F938F939F93AF93BF93EF93FF931092CA
:10068000B2000E945300FF91EF91BF91AF919F91F3
:100690008F917F916F915F914F913F912F910F902B
:1006A0000FBE0F901F901895DC01FB0102C08D93C7
:1006B000319680818823D9F7443620F480E28C93E8
:1006C00020E00EC0842F64E60E948D03282F205D59
:1006D0002C9320538CE99FEF289F802D1124480FE5
:1006E000FD0131964A3038F4222311F480E201C032
:1006F00080E380830EC0842F6AE00E948D03805DBA
:1007000011968C93805326EF3FEF829F802D11240A
:10071000480F405D418312820895991B79E004C01F
:10072000991F961708F0961B881F7A95C9F7809530
:060730000895F894FFCFCC
:10073600202201417474656E3D2000000182014251
:0A074600018201420142012201007C
:00000001FF
