:100000000C9434000C9451000C9451000C94510049
:100010000C9451000C9451000C9451000C94570214
:100020000C9451000C9451000C9451000C94ED016F
:100030000C9451000C9451000C9451000C945100FC
:100040000C9451000C9451000C9451000C945100EC
:100050000C9451000C9451000C9451000C945100DC
:100060000C9451000C94510011241FBECFEFD8E026
:10007000DEBFCDBF11E0A0E0B1E0E4E9F5E002C0F1
:1000800005900D92AA30B107D9F711E0AAE0B1E0CE
:1000900001C01D92AF32B107E1F70E9452010C94EA
:1000A000C8020C94000030910A01332391F1E091D1
:1000B0000101F09102012081922F92959F7027FFFC
:1000C000906195B9892F806485B995B9892F807F12
:1000D0002F70822B85B9982F906495B985B915B882
:1000E00080910001815080930001882351F48FE0BA
:1000F00091E0909302018093010180E280930001DE
:1001000005C03196F0930201E09301013150309324
:100110000A0180910A01882329F4809170008D7F63
:10012000809370000895882321F080E880930B016C
:10013000089510920B010895982F92959F70282F83
:100140002F7080910B01882311F09068206895B979
:1001500095B9892F806485B985B995B995B925B9BF
:1001600025B9822F806485B985B925B925B915B817
:100170008AE68A95F1F70895482F42954F70942F9B
:100180009061382F3F70232F206180910B018823CD
:1001900021F0942F9069232F206995B995B9892F63
:1001A000806485B985B995B995B925B925B9822FE6
:1001B000806485B985B925B925B915B885E88A95CA
:1001C000F1F708950F931F9381E00E949C0000EACD
:1001D0001FE0C8010197F1F782E00E949C00C8016E
:1001E0000197F1F71F910F91089580910B01982FBE
:1001F000926095B995B9826485B985B995B995B973
:1002000015B885E88A95F1F788E20E949C0086E09F
:100210000E949C008CE00E949C000E94E2000895D5
:10022000813011F080EC01C080E861506F70862B46
:100230000E949C000895CF93DF93EC0103C00E94BD
:10024000BC00219688818823D1F7DF91CF91089552
:10025000982F80910A018032D9F0E0910701F09146
:1002600008019193F0930801E093070180910A013E
:100270008F5F80930A018091050190910601E81734
:10028000F90731F48FE091E0909308018093070122
:1002900080910A01813029F48091700082608093FE
:1002A00070000895CF92DF92EF92FF920F931F9309
:1002B000DF93CF93CDB7DEB760970FB6F894DEBF6C
:1002C0000FBECDBF8AB1806F8AB984B18FEF84B978
:1002D00087B1806F87B980917C00806680937C00B5
:1002E00080917C00816080937C0080917A0080689E
:1002F00080937A0080917A00866080937A0084B53A
:10030000836884BD85B5816085BD809181008A60E8
:100310008093810080916F00826080936F0088EEEF
:1003200093E090938900809388008091B000826070
:100330008093B0008091B10082608093B100809181
:10034000700082608093700082E38093B3000E940B
:10035000F5000E94E200789490E0EE24E3946E01B0
:100360000894C11CD11CF9B02F2DF0FC09C090FFDE
:1003700007C080910401823018F0815080930401FD
:1003800021FD09C091FF07C0809104018B3018F452
:100390008F5F809304014091040180910C018417C8
:1003A000B1F0E0920D01C60163E071E00E948302AA
:1003B00080EC0E942801860104C00E9428010F5F82
:1003C0001F4FF80180818823C1F710920D018091A1
:1003D000040180930C019F2DC6CF1F920F920FB680
:1003E0000F9211240F931F932F933F934F935F937B
:1003F0006F937F938F939F93AF93BF93EF93FF93ED
:10040000DF93CF93CDB7DEB76097DEBFCDBF5C9AE9
:1004100080917A00806480937A0080917A0086FDD2
:10042000FCCF2091790080910401882341F030E0D5
:1004300090E0019702C0359527958A95E2F72093C1
:100440000E0180910D018823B1F48E010F5F1F4FC3
:10045000C80163E071E040910E010E94830280E8D0
:100460000E94280104C00E9428010F5F1F4FF8015D
:1004700080818823C1F780910E0187BD5C986096CA
:10048000DEBFCDBFCF91DF91FF91EF91BF91AF91D3
:100490009F918F917F916F915F914F913F912F919C
:1004A0001F910F910F900FBE0F901F9018951F92E4
:1004B0000F920FB60F9211242F933F934F935F9398
:1004C0006F937F938F939F93AF93BF93EF93FF931C
:1004D0005D9A80910A01803211F00E9453005D986C
:1004E0001092B200FF91EF91BF91AF919F918F91C8
:1004F0007F916F915F914F913F912F910F900FBE20
:100500000F901F901895DC01FB0102C08D9331966E
:1005100080818823D9F7443620F480E28C9320E050
:100520000EC0842F64E60E94BC02282F205D2C930D
:1005300020538CE99FEF289F802D1124480FFD0147
:1005400031964A3038F4222311F480E201C080E36E
:1005500080830EC0842F6AE00E94BC02805D1196E9
:100560008C93805326EF3FEF829F802D1124480FFC
:10057000405D418312820895991B79E004C0991F60
:10058000961708F0961B881F7A95C9F780950895ED
:04059000F894FFCF0D
:0A059400200F0100012F010F0100EC
:00000001FF
